:020000040000FA
:100000000C9459000C9481000C9481000C94810094
:100010000C9481000C9481000C9481000C9481005C
:100020000C9481000C9481000C9481000C9481004C
:100030000C9481000C9481000C9481000C9481003C
:100040000C94E1040C9481000C94AF040C9489048A
:100050000C9481000C9481000C9481000C9481001C
:100060000C9481000C948100000000002500280001
:100070002B00040404040404040402020202020229
:10008000030303030303010204081020408001025C
:1000900004081020010204081020000000080002DB
:1000A00001000003040700000000000000002B0511
:1000B000950711241FBECFEFD8E0DEBFCDBF12E001
:1000C000A0E0B1E0E2E7F6E102C005900D92AC33AA
:1000D000B107D9F722E0ACE3B2E001C01D92AD3F19
:1000E000B207E1F710E0C8E5D0E004C02197FE01B7
:1000F0000E942309C735D107C9F70E945F050C94F8
:100100002C0B0C9400000895AF92BF92CF92DF9217
:10011000EF92FF920F931F93CF93DF936C017B01BC
:100120008B01040F151FEB015E01AE18BF08C0174D
:10013000D10759F06991D601ED91FC910190F081C0
:10014000E02DC6010995892B79F7C501DF91CF9183
:100150001F910F91FF90EF90DF90CF90BF90AF90E5
:100160000895FC01538D448D252F30E0842F90E0BD
:10017000821B930B541710F0CF96089501970895A2
:10018000FC01918D828D981761F0A28DAE0FBF2F6B
:10019000B11D5D968C91928D9F5F9F73928F90E0C1
:1001A00008958FEF9FEF08952FB7F89480914C0238
:1001B00090914D02A0914E02B0914F022FBF8093BB
:1001C000580290935902A0935A02B0935B0280E5C3
:1001D00092E00E94C00097FF26C02FB7F89480914C
:1001E0004C0290914D02A0914E02B0914F022FBF50
:1001F000409158025091590260915A0270915B02ED
:10020000841B950BA60BB70B4091540250915502DD
:10021000609156027091570284179507A607B70799
:10022000B0F28FEF9FEF0895FC01918D828D9817AA
:1002300031F0828DE80FF11D858D90E008958FEFEC
:100240009FEF0895FC01918D228D892F90E0805CB5
:100250009F4F821B91098F739927089580E592E043
:100260000E94220121E0892B09F420E0822F0895C9
:1002700080E090E0892B29F00E942E0181110C94DE
:1002800000000895FC01A48DA80FB92FB11DA35A39
:10029000BF4F2C91848D90E001968F739927848FA6
:1002A000A689B7892C93A089B1898C9183708064C9
:1002B0008C93938D848D981306C00288F389E02D6A
:1002C00080818F7D80830895EF92FF920F931F931B
:1002D000CF93DF93EC0181E0888F9B8D8C8D9813F9
:1002E0001AC0E889F989808185FF15C09FB7F89405
:1002F000EE89FF896083E889F98980818370806451
:1003000080839FBF81E090E0DF91CF911F910F919B
:10031000FF90EF900895F62E0B8D10E00F5F1F4FAA
:100320000F731127E02E8C8D8E110CC00FB607FCB9
:10033000FACFE889F989808185FFF5CFCE010E9447
:100340004201F1CFEB8DEC0FFD2FF11DE35AFF4F72
:10035000F0829FB7F8940B8FEA89FB8980818062D5
:10036000CFCFCF93DF93EC01888D8823B9F0AA8992
:10037000BB89E889F9898C9185FD03C0808186FD60
:100380000DC00FB607FCF7CF8C9185FFF2CF8081AF
:1003900085FFEDCFCE010E944201E9CFDF91CF91E1
:1003A000089590E0FC01E656FF4F2491FC01EA57C6
:1003B000FF4F3491FC01EE58FF4FE491EE23C9F05A
:1003C000222339F0233001F1A8F4213019F1223031
:1003D00029F1F0E0EE0FFF1FE859FF4FA591B4910E
:1003E0008FB7F894EC91611126C030953E233C9371
:1003F0008FBF08952730A9F02830C9F0243049F77D
:10040000809180008F7D03C0809180008F778093E2
:100410008000DFCF84B58F7784BDDBCF84B58F7D3F
:10042000FBCF8091B0008F778093B000D2CF8091C6
:10043000B0008F7DF9CF3E2BDACF3FB7F894809193
:100440003D0290913E02A0913F02B091400226B53C
:10045000A89B05C02F3F19F00196A11DB11D3FBFFC
:10046000BA2FA92F982F8827BC01CD01620F711DCB
:10047000811D911D42E0660F771F881F991F4A95C5
:10048000D1F70895FC0101900020E9F73197AF0101
:10049000481B590BBC0180E592E00C9484000C943D
:1004A00042028F929F92AF92BF92CF92DF92EF92D1
:1004B000FF920F931F93CF93DF93CDB7DEB7A19732
:1004C0000FB6F894DEBF0FBECDBF6B017C01F7FE07
:1004D00041C06DE280E592E00E9464018C01222718
:1004E0003327A9012C193D094E095F0919A2CE0134
:1004F00081967C019AE0892E912CA12CB12CCA0105
:10050000B901A50194010E94F208605DF7016293B0
:100510007F01211531054105510589F790E080E003
:10052000309719F0CF010E944202800F911FA196CF
:100530000FB6F894DEBF0FBECDBFDF91CF911F91F4
:100540000F91FF90EF90DF90CF90BF90AF909F9072
:100550008F900895AC019B0119A28E010F5D1F4F72
:100560008AE0C82ED12CE12CF12CCA01B901A701D7
:1005700096010E94F208605DF80162938F012115D7
:1005800031054105510589F790E080E0309779F217
:10059000CF010E944202CBCFCF93DF930E94420251
:1005A000EC018CE191E00E9442028C0F9D1FDF91D3
:1005B000CF910895CF93DF93EC018CE191E00E94FD
:1005C000420283E291E0209719F18FE191E0C43675
:1005D000D105F1F087E291E00E944F0264E670E0FD
:1005E0006C1B7D0B072E000C880B990B0E9451028F
:1005F0008DE291E00E944F0287E291E00E944F025B
:10060000BE01DD0F880B990B0E94510289E391E036
:10061000DF91CF910C94CC020F931F93CF93DF9374
:100620008C01EB01FC01808191810097E1F06881F0
:10063000798161157105A9F0428153812C813D8139
:100640004217530770F00E94250B8C819D81F801A1
:10065000958384831D821C82DF91CF911F910F911E
:1006600008950E94C50988819981F801918380834A
:100670008A819B81938382838C819D8195838483EE
:10068000198218821B821A82E5CFFC018081918138
:10069000009711F00C94C5090895AF92BF92CF92C4
:1006A000DF92EF92FF920F931F93CF93DF93DC01C2
:1006B000CD90DC901197C114D10439F01496CD91EE
:1006C000DC918C017601209761F4DF91CF911F912D
:1006D0000F91FF90EF90DF90CF90BF90AF90089573
:1006E00075015701BFEFAB1ABB0AF7018081082ED5
:1006F000000C990B0E947D08892B91F72197CC0D56
:10070000DD1D8881082E000C990B0E947D08892B25
:1007100029F0CE15DF0510F02197F3CFAE014F5F22
:100720005F4F4E195F09D80115965C934E9314974D
:10073000CE14DF0420F4B701C6010E94130BD801C8
:10074000ED91FC91119714968D919C91E80FF91FF2
:100750001082BBCFFC0124813581232B39F421E0A9
:10076000FB018081882349F020E007C080819181CE
:100770000E941C0B21E0892BB9F7822F08950F935B
:100780001F93CF93DF93EC0188819981009759F0F3
:100790002A813B812617370730F081E0DF91CF9126
:1007A0001F910F9108958B016F5F7F4F0E944E0A3A
:1007B000009759F0998388831B830A832C813D819C
:1007C000232B59F7FC011082E8CF80E0E7CFCF93CD
:1007D000DF93EC01198218821B821A821D821C820F
:1007E00070E060E00E94BF032881398181110FC051
:1007F0002115310519F0C9010E94C5091982188215
:100800001D821C821B821A82DF91CF9108951D8266
:100810001C826EE171E0C901DF91CF910C94250B30
:10082000EF92FF920F931F93CF93DF9300D0CDB73A
:10083000DEB78C01FC0111821082138212821582B4
:10084000148270E060E00E94BF03F80120813181D2
:1008500081112FC02115310519F0C9010E94C50968
:10086000F8011182108215821482138212820E9472
:10087000D40097FD26C089831A82F801E480F580B0
:10088000FFEFEF1AFF0AB701C8010E94BF038823D8
:1008900071F3F8012081318184819581BE016F5F00
:1008A0007F4F820F931F0E94250BF801F582E4828F
:1008B000DECF158214826EE171E0C9010E94250B22
:1008C000D6CFC8010F900F90DF91CF911F910F915C
:1008D000FF90EF9008950F931F938C010E94E907FA
:1008E00024E630E040E050E00E948908012E000C30
:1008F000220B330B600F711F821F931F21E065369F
:100900007105810591050CF420E0822F1F910F9154
:1009100008951F920F920FB60F9211242F933F93B9
:100920004F935F936F937F938F939F93AF93BF93F7
:10093000EF93FF9380E592E00E944201FF91EF91D7
:10094000BF91AF919F918F917F916F915F914F91E7
:100950003F912F910F900FBE0F901F9018951F92EF
:100960000F920FB60F9211242F938F939F93EF93B3
:10097000FF93E0916002F09161028081E091660254
:10098000F091670282FD1BC09081809169028F5FA8
:100990008F7320916A02821741F0E0916902F0E0C2
:1009A000E05BFD4F958F80936902FF91EF919F91DE
:1009B0008F912F910F900FBE0F901F9018958081EF
:1009C000F4CF1F920F920FB60F9211242F933F93E3
:1009D0008F939F93AF93BF9380914C0290914D0260
:1009E000A0914E02B0914F0230913C0223E0230FC0
:1009F0002D3758F50196A11DB11D20933C0280931F
:100A00004C0290934D02A0934E02B0934F028091FE
:100A10003D0290913E02A0913F02B09140020196AA
:100A2000A11DB11D80933D0290933E02A0933F0211
:100A3000B0934002BF91AF919F918F913F912F91C1
:100A40000F900FBE0F901F90189526E8230F029667
:100A5000A11DB11DD2CFE0E5F2E01382128288EE33
:100A600093E0A0E0B0E084839583A683B7838EE013
:100A700091E09183808385EC90E09587848784EC76
:100A800090E09787868780EC90E0918B808B81EC5B
:100A900090E0938B828B82EC90E0958B848B86EC3C
:100AA00090E0978B868B118E128E138E148E83EFAF
:100AB00092E00E94E7038DEE92E00C94E703CF935F
:100AC000DF9300D000D000D0CDB7DEB7789484B5E6
:100AD000826084BD84B5816084BD85B5826085BD3A
:100AE00085B5816085BD80916E00816080936E00C8
:100AF00010928100809181008260809381008091BA
:100B0000810081608093810080918000816080936A
:100B100080008091B10084608093B1008091B0002A
:100B200081608093B00080917A00846080937A0025
:100B300080917A00826080937A0080917A0081604F
:100B400080937A0080917A00806880937A00109276
:100B5000C10080E480937C0080917A00806480935F
:100B60007A0080917A0086FDFCCF809178006091B8
:100B70007900762F682F072E000C880B990B6115D2
:100B800071058105910511F00E943808E09160021D
:100B9000F091610282E08083E0915C02F0915D025D
:100BA0001082E0915E02F0915F0280E180831092FA
:100BB0006802E0916402F091650286E08083E09132
:100BC0006202F0916302808180618083E091620221
:100BD000F0916302808188608083E0916202F091ED
:100BE0006302808180688083E0916202F0916302F9
:100BF00080818F7D808383E491E00E944F0280E5B5
:100C000092E00E942201892BD1F3CE0101960E942D
:100C1000100489819A81C12CD12C7601009719F09A
:100C20000E9441086B01D0924802C0924702CE0157
:100C300001960E944503C6010E94DA0288E791E00E
:100C40000E944F0280E592E00E942201892BD1F39D
:100C5000CE0101960E94100489819A81C12CD12C69
:100C60007601009719F00E9441086B01D09246026C
:100C7000C0924502CE0101960E944503C6010E9422
:100C8000DA0202E010E08EEA91E00E944F0280E575
:100C900092E00E942201892BD1F3CE0101960E949D
:100CA0001004BE016F5F7F4F8DEE92E00E940C0337
:100CB000CE0101960E9445038DEE92E00E944D0305
:100CC0006FEC71E08DEE92E00E94AA03882309F494
:100CD0004DC081E090E090934B0280934A0287E3FD
:100CE00091E00E944F0280914A0290914B02892B21
:100CF00009F45EC087ED91E00E94CC0280914A0227
:100D000090914B02892B09F476C086EF91E00E9406
:100D10004F0280E592E00E942201892BD1F3CE019F
:100D200001960E941004BE016F5F7F4F83EF92E037
:100D30000E940C03CE0101960E94450383EF92E0CE
:100D40000E944D030091F3021091F4020115110568
:100D500091F1F8018081882371F1082E000C990B24
:100D60000E940B0BF80181938F01F3CF61ED71E0CD
:100D70008DEE92E00E94AA038111ABCF63ED71E08A
:100D80008DEE92E00E94AA03811108C065ED71E02A
:100D90008DEE92E00E94AA03882329F010924B0264
:100DA00010924A029CCF10934B0200934A026BCFE1
:100DB00088EE91E0A1CF87E391E00E944F0240913D
:100DC000F7025091F8026091F3027091F40280E50D
:100DD00092E00E9484008CE191E00E94420263E371
:100DE00072E083EF92E00E94AA0391E0811101C0BA
:100DF00090E09093490200E010E080914A029091C7
:100E00004B02892BA1F080914902882309F488C004
:100E100080914702909148020E946B0490E0909369
:100E20004402809343029093420280934102809156
:100E30004A0290914B02892B59F48091470290917C
:100E400048020E946B0490E0909344028093430216
:100E500080914A0290914B02892B59F4809145026E
:100E6000909146020E946B0490E09093420280931E
:100E7000410285E392E00E944F026091410270912D
:100E80004202072E000C880B990B0E9451026091C0
:100E9000410286E00E94D1016091430270914402B8
:100EA000072E000C880B990B0E9451028CE191E0F7
:100EB0000E9442026091430287E00E94D1010E9499
:100EC0001D024B015C0188EEC82E83E0D82EE12C78
:100ED000F12C0E941D02681979098A099B09683E54
:100EE000734081059105A8F3F1E0CF1AD108E1081C
:100EF000F10828EE820E23E0921EA11CB11CC11441
:100F0000D104E104F10429F70115110509F475CFA5
:100F10000E942E01882309F470CF0E9400006DCF3B
:100F2000809145029091460277CF8DEE92E00E942B
:100F3000450383EF92E00C9445038F929F92AF920A
:100F4000BF92CF92DF92EF92FF92CF93DF93EC01AB
:100F5000688179818A819B8161157105810591057F
:100F600021F464E279ED8BE597E02DE133EF41E088
:100F700050E00E94890849015A019B01AC01A7EA8F
:100F8000B1E40E94A8086B017C01ACEEB4EFA501AE
:100F900094010E94B608C60ED71EE81EF91EF7FE81
:100FA00006C081E0C81AD108E10880E8F80AC882C2
:100FB000D982EA82FB82C701B6019F77DF91CF9188
:100FC000FF90EF90DF90CF90BF90AF909F908F9069
:100FD00008958F929F92AF92BF92CF92DF92EF923D
:100FE000FF92609100017091010180910201909146
:100FF0000301611571058105910521F464E279ED24
:101000008BE597E02DE133EF41E050E00E94890845
:1010100049015A019B01AC01A7EAB1E40E94A8086A
:101020006B017C01ACEEB4EFA50194010E94B608FF
:10103000C60ED71EE81EF91EF7FE06C081E0C81ACC
:10104000D108E10880E8F80AC0920001D0920101BD
:10105000E0920201F0920301C701B6019F77FF9071
:10106000EF90DF90CF90BF90AF909F908F900895BA
:10107000609300017093010180930201909303013A
:1010800008951F93FC0199278827BC01E8941191CA
:101090001032E9F3193010F01E30C8F31B3251F052
:1010A0001D3249F4689406C00E946808610F711DE2
:1010B000811D911D119110531A30B0F33EF490959B
:1010C0008095709561957F4F8F4F9F4F1F91089529
:1010D000592F482F372F262F660F771F881F991FEC
:1010E000660F771F881F991F620F731F841F951F3C
:1010F000660F771F881F991F089591110C94860819
:10110000803219F089508550C8F7089599278827AB
:101110000895052E97FB1EF400940E94A00857FD29
:1011200007D00E94F20807FC03D04EF40C94A008EC
:1011300050954095309521953F4F4F4F5F4F089503
:1011400090958095709561957F4F8F4F9F4F089533
:101150000E941409A59F900DB49F900DA49F800D2F
:10116000911D11240895B7FF0C94A8080E94A808A7
:10117000821B930B08952F923F924F925F926F9232
:101180007F928F929F92AF92BF92CF92DF92EF9217
:10119000FF920F931F93CF93DF93CDB7DEB7CA1B98
:1011A000DB0B0FB6F894DEBF0FBECDBF09942A88C3
:1011B000398848885F846E847D848C849B84AA846B
:1011C000B984C884DF80EE80FD800C811B81AA81F8
:1011D000B981CE0FD11D0FB6F894DEBF0FBECDBFC3
:1011E000ED010895A1E21A2EAA1BBB1BFD010DC043
:1011F000AA1FBB1FEE1FFF1FA217B307E407F507C7
:1012000020F0A21BB30BE40BF50B661F771F881FA2
:10121000991F1A9469F760957095809590959B0138
:10122000AC01BD01CF010895A29FB001B39FC001E1
:10123000A39F700D811D1124911DB29F700D811D02
:101240001124911D0895EE0FFF1F0590F491E02DDC
:1012500009940F931F93CF93DF938230910510F47D
:1012600082E090E0E091FB02F091FC0230E020E0AF
:10127000B0E0A0E0309799F42115310509F44AC097
:10128000281B390B24303105D8F58A819B816115E3
:10129000710589F1FB0193838283FE0111C04081B6
:1012A00051810281138148175907E0F04817590707
:1012B00099F4109761F012960C93129713961C9361
:1012C0003296CF01DF91CF911F910F910895009336
:1012D000FB021093FC02F4CF2115310551F04217A7
:1012E000530738F0A901DB019A01BD01DF01F801C4
:1012F000C1CFEF01F9CF9093FC028093FB02CDCFD9
:10130000FE01E20FF31F819391932250310939833B
:101310002883D7CF2091F9023091FA02232B41F490
:1013200020910601309107013093FA022093F902CF
:1013300020910401309105012115310541F42DB7AB
:101340003EB74091080150910901241B350BE091F3
:10135000F902F091FA02E217F307A0F42E1B3F0BFB
:101360002817390778F0AC014E5F5F4F2417350717
:1013700048F04E0F5F1F5093FA024093F902819399
:1013800091939FCFF0E0E0E09CCFCF93DF93009765
:10139000E9F0FC01329713821282A091FB02B09116
:1013A000FC02ED0130E020E01097A1F420813181B2
:1013B000820F931F2091F9023091FA022817390702
:1013C00009F061C0F093FA02E093F902DF91CF9146
:1013D0000895EA01CE17DF07E8F54A815B819E0197
:1013E00041155105B1F7E901FB83EA834991599110
:1013F000C40FD51FEC17FD0761F48081918102961F
:10140000840F951FE90199838883828193819B834F
:101410008A83F0E0E0E012968D919C9113970097FB
:10142000B9F52D913C911197CD010296820F931F32
:101430002091F9023091FA022817390739F63097CE
:1014400051F51092FC021092FB02B093FA02A093A5
:10145000F902BCCFD383C28340815181840F951F91
:10146000C817D90761F44E5F5F4F88819981480F93
:10147000591F518340838A819B81938382832115E5
:10148000310509F0B0CFF093FC02E093FB029ECF50
:10149000FD01DC01C0CF13821282D7CFB0E0A0E003
:1014A000E4E5FAE00C94BD088C01009751F4CB01FF
:1014B0000E9429098C01C801CDB7DEB7E0E10C9488
:1014C000D908FC01E60FF71F9C0122503109E217F1
:1014D000F30708F49DC0D901CD91DC911197C6178F
:1014E000D70798F0C530D10530F3CE0104978617A1
:1014F000970708F3C61BD70B2297C193D1936D931F
:101500007C93CF010E94C509D6CF5B01AC1ABD0AFE
:101510004C018C0E9D1EA091FB02B091FC02512C3F
:10152000412CF12CE12C109731F58091F90290912A
:10153000FA028815990509F05CC04616570608F0AE
:1015400058C08091040190910501009741F48DB736
:101550009EB74091080150910901841B950BE81733
:10156000F90708F055C0F093FA02E093F902F90187
:1015700071836083A0CF8D919C91119712966C908E
:10158000129713967C901397A815B90559F56C011D
:1015900042E0C40ED11CCA14DB0420F1AC014A198C
:1015A0005B09DA011296159780F06282738251838B
:1015B0004083D9016D937C93E114F10471F0D7015C
:1015C0001396FC93EE93129776CF22968C0F9D1F65
:1015D000F90191838083F301EFCFF093FC02E09354
:1015E000FB0269CF4816590608F42C017D01D3018E
:1015F0009ACFCB010E9429097C01009749F0AE01E6
:10160000B8010E94130BC8010E94C509870153CF7E
:1016100010E000E050CF9111089581548A5108F4F0
:10162000805E855A0895FB01DC0102C001900D9295
:1016300041505040D8F70895FB01DC018D91019095
:1016400080190110D9F3990B0895FB01DC01019079
:101650000D920020E1F7089510E0C8E5D0E004C045
:10166000FE010E9423092196C935D107C9F7F894D4
:10167000FFCF010000000000FD028000000000001C
:1016800064018400B100B1012201C00014010D0AFF
:10169000007C313E007C303E002828E2889A0029F8
:1016A0002F3130297C303E202B2000292F3130294A
:1016B0007C313E0A000A50726F626162696C6C692B
:1016C0007479206F6620666972737420717562691F
:1016D00074206F66206265696E67206120312E205C
:1016E0002030252D313030253A0050726F62616212
:1016F0006C696C6C697479206F66207365636F6EBA
:1017000064207175626974206F66206265696E6716
:10171000206120312E202030252D313030253A0017
:101720004172652074686F736520717562697473A6
:1017300020656E74616E676C65643F20592F4E3A68
:1017400000590079004E006E005175626974732073
:10175000454E54414E474C4544006E6F7420656EB3
:1017600074616E676C656400426F746820717562A5
:101770006974732061726520656E74616E676C6553
:10178000642E2057686963682071756269742063EC
:101790006F6C6C61707365732066697274733F203F
:0E17A000412F423A0061006261203D200000AE
:107E0000112484B714BE81FFF0D085E080938100F7
:107E100082E08093C00088E18093C10086E0809377
:107E2000C20080E18093C4008EE0C9D0259A86E02C
:107E300020E33CEF91E0309385002093840096BBD3
:107E4000B09BFECF1D9AA8958150A9F7CC24DD24C4
:107E500088248394B5E0AB2EA1E19A2EF3E0BF2EE7
:107E6000A2D0813461F49FD0082FAFD0023811F036
:107E7000013811F484E001C083E08DD089C08234E0
:107E800011F484E103C0853419F485E0A6D080C0E4
:107E9000853579F488D0E82EFF2485D0082F10E0AE
:107EA000102F00270E291F29000F111F8ED06801E7
:107EB0006FC0863521F484E090D080E0DECF843638
:107EC00009F040C070D06FD0082F6DD080E0C81688
:107ED00080E7D80618F4F601B7BEE895C0E0D1E017
:107EE00062D089930C17E1F7F0E0CF16F0E7DF06D8
:107EF00018F0F601B7BEE89568D007B600FCFDCFD4
:107F0000A601A0E0B1E02C9130E011968C91119780
:107F100090E0982F8827822B932B1296FA010C0160
:107F200087BEE89511244E5F5F4FF1E0A038BF0790
:107F300051F7F601A7BEE89507B600FCFDCF97BE46
:107F4000E89526C08437B1F42ED02DD0F82E2BD052
:107F50003CD0F601EF2C8F010F5F1F4F84911BD097
:107F6000EA94F801C1F70894C11CD11CFA94CF0C13
:107F7000D11C0EC0853739F428D08EE10CD085E9AC
:107F80000AD08FE07ACF813511F488E018D01DD067
:107F900080E101D065CF982F8091C00085FFFCCF94
:107FA0009093C60008958091C00087FFFCCF809118
:107FB000C00084FD01C0A8958091C6000895E0E648
:107FC000F0E098E1908380830895EDDF803219F02E
:107FD00088E0F5DFFFCF84E1DECF1F93182FE3DFCA
:107FE0001150E9F7F2DF1F91089580E0E8DFEE27F6
:047FF000FF270994CA
:027FFE00040479
:00000001FF
